:020000040000fa
:080000000001040000000000f3
:020000040000fa
:0400080010020000e2
:020000040000fa
:04000c0010020000de
:020000040000fa
:0400100010020000da
:020000040000fa
:0400140010020000d6
:020000040000fa
:0400180010020000d2
:020000040000fa
:04001c0010020000ce
:020000040000fa
:0400200010020000ca
:020000040000fa
:0400240010020000c6
:020000040000fa
:0400280010020000c2
:020000040000fa
:04002c0010020000be
:020000040000fa
:0400300010020000ba
:020000040000fa
:0400340010020000b6
:020000040000fa
:0400380010020000b2
:020000040000fa
:04003c0010020000ae
:020000040000fa
:0400400010020000aa
:020000040000fa
:0400440010020000a6
:020000040000fa
:0400480010020000a2
:020000040000fa
:04004c00100200009e
:020000040000fa
:04005000100200009a
:020000040000fa
:040054001002000096
:020000040000fa
:040058001002000092
:020000040000fa
:04005c00100200008e
:020000040000fa
:04006000100200008a
:020000040000fa
:040064001002000086
:020000040000fa
:040068001002000082
:020000040000fa
:04006c00100200007e
:020000040000fa
:04007000100200007a
:020000040000fa
:040074001002000076
:020000040000fa
:040078001002000072
:020000040000fa
:04007c00100200006e
:020000040000fa
:04008000100200006a
:020000040000fa
:040084001002000066
:020000040000fa
:040088001002000062
:020000040000fa
:04008c00100200005e
:020000040000fa
:04009000100200005a
:020000040000fa
:040094001002000056
:020000040000fa
:040098001002000052
:020000040000fa
:04009c00100200004e
:020000040000fa
:0400a000100200004a
:020000040000fa
:0400a4001002000046
:020000040000fa
:0400a8001002000042
:020000040000fa
:0400ac00100200003e
:020000040000fa
:0400b000100200003a
:020000040000fa
:0400b4001002000036
:020000040000fa
:0400b8001002000032
:020000040000fa
:0400bc00100200002e
:020000040000fa
:0400c000100200002a
:020000040000fa
:0400c4001002000026
:020000040000fa
:0400c8001002000022
:020000040000fa
:0400cc00100200001e
:020000040000fa
:0400d000100200001a
:020000040000fa
:0400d4001002000016
:020000040000fa
:0400d8001002000012
:020000040000fa
:0400dc00100200000e
:020000040000fa
:0400e000100200000a
:020000040000fa
:0400e4001002000006
:020000040000fa
:0400e8001002000002
:020000040000fa
:0400ec0010020000fe
:020000040000fa
:0400f00010020000fa
:020000040000fa
:0400f40010020000f6
:020000040000fa
:0400f80010020000f2
:020000040000fa
:0400fc0010020000ee
:020000040000fa
:0401000010020000e9
:020000040000fa
:0401040010020000e5
:020000040000fa
:0401080010020000e1
:020000040000fa
:04010c0010020000dd
:020000040000fa
:0401100010020000d9
:020000040000fa
:0401140010020000d5
:020000040000fa
:0401180010020000d1
:020000040000fa
:04011c0010020000cd
:020000040000fa
:0401200010020000c9
:020000040000fa
:0401240010020000c5
:020000040000fa
:0401280010020000c1
:020000040000fa
:04012c0010020000bd
:020000040000fa
:0401300010020000b9
:020000040000fa
:0401340010020000b5
:020000040000fa
:0401380010020000b1
:020000040000fa
:04013c0010020000ad
:020000040000fa
:0401400010020000a9
:020000040000fa
:0401440010020000a5
:020000040000fa
:0401480010020000a1
:020000040000fa
:04014c00100200009d
:020000040000fa
:040150001002000099
:020000040000fa
:040154001002000095
:020000040000fa
:040158001002000091
:020000040000fa
:04015c00100200008d
:020000040000fa
:040160001002000089
:020000040000fa
:040164001002000085
:020000040000fa
:040168001002000081
:020000040000fa
:04016c00100200007d
:020000040000fa
:040170001002000079
:020000040000fa
:040174001002000075
:020000040000fa
:040178001002000071
:020000040000fa
:04017c00100200006d
:020000040000fa
:040180001002000069
:020000040000fa
:040184001002000065
:020000040000fa
:040188001002000061
:020000040000fa
:04018c00100200005d
:020000040000fa
:040190001002000059
:020000040000fa
:040194001002000055
:020000040000fa
:040198001002000051
:020000040000fa
:04019c00100200004d
:020000040000fa
:0401a0001002000049
:020000040000fa
:0401a4001002000045
:020000040000fa
:0401a8001002000041
:020000040000fa
:0401ac00100200003d
:020000040000fa
:0401b0001002000039
:020000040000fa
:0401b4001002000035
:020000040000fa
:0401b8001002000031
:020000040000fa
:0401bc00100200002d
:020000040000fa
:0401c0001002000029
:020000040000fa
:0401c4001002000025
:020000040000fa
:0401c8001002000021
:020000040000fa
:0401cc00100200001d
:020000040000fa
:0401d0001002000019
:020000040000fa
:0401d4001002000015
:020000040000fa
:0401d8001002000011
:020000040000fa
:0401dc00100200000d
:020000040000fa
:0401e0001002000009
:020000040000fa
:0401e4001002000005
:020000040000fa
:0401e8001002000001
:020000040000fa
:0401ec0010020000fd
:020000040000fa
:0401f00010020000f9
:020000040000fa
:0401f40010020000f5
:020000040000fa
:0401f80010020000f1
:020000040000fa
:0401fc0010020000ed
:020000040000fa
:100200004f8420000e7f24000e01880000000000b3
:10021000000020000000e000020032000001200089
:100220002002880014000700df0007000000e00043
:1002300003003a0020502000010020000200370097
:100240000000200001002000810f7000010032003a
:1002500014000700000020000000e000020032004f
:1002600000000200000000005c0502000000000029
:100270000040da000000fe004440a9000004200015
:100280000000e00003003200002020009001880000
:100290004440a800000006008a1f78008b1f7800e9
:1002a00000000600a1028800800478000000eb0036
:1002b0001f003700e284440054a0b4009905ba003e
:1002c000e284440054a0b4009906ba00e2844400d9
:1002d00054a0b4000006eb00476fde00fd07b2003b
:1002e000ae018800636ce10003003a00eaff0700fa
:1002f0000000eb000e003700606ce10008003a00df
:10030000004deb000a05e800020039003420ec0043
:100310000af0a0008b05e900f9ff3e000400370059
:100320006168e100010032000086eb000b0007006d
:1003300019c7ba001905ba000e04e00003003a001c
:100340000a00e000dbff3a0000000600fe07b200f2
:10035000ae0288008a047800f5ff37000cd0a300b5
:10036000e20f4d001c00390089027800354dba00bb
:100370000a05e800020039003420ec000af0a00071
:100380008b05e9000f003200254dba000a05e80090
:10039000020039003420ec000af0a0008b05e900cf
:1003a000080032000c00e0000600320015cdba0053
:1003b0000a05e800020039003420ec000af0a00031
:1003c0008b05e9008984e80054a0b4000b00e0002c
:1003d000e2ff3a00000006009902ba00055d7800cd
:1003e0008b05e900f7ff3200c82ade00055d7800c2
:1003f0008b05e900f3ff32000c00e000f1ff320052
:1004000019ddba00eeff37003c04040000000000d4
:10041000e0030400000000007a0304000000000074
:100420000040da000000fe00ec8747008e1f7800d5
:100430006c87570044002000041f7800000f7800ec
:100440006c87570002afbe00e1bf9f006c80570071
:10045000460107001e00be004f077800cf00b10024
:1004600000000600ec8747008e1f78001100200076
:10047000a1bf9f006c875700002f78006c80570049
:100480003c0107001e0078004f077800cf00b10044
:1004900000000600ec8747008e1f7800e20f500036
:1004a00034003e0010428000e10f50000300320093
:1004b000e20f500011003a000c0037008339200091
:1004c0000300e00001003a000040da009803e20077
:1004d00002003500a023ef0099e3a8009b43ab0086
:1004e0000d003a009b43a8000b003700e33a2000c0
:1004f0000300e00001003a000040da00ae03e20031
:1005000002003500b623ef00afe3a800b143ab0013
:1005100001003a00b143a800820178000b003700c7
:100520003102fb00e10f500004003a009b23ab00b6
:10053000feff3a00e41c880003003700b123ab0043
:10054000feff3a00941d88008301e9000300e000eb
:10055000f3ff3a00e10f500003003a009b03ab00a9
:10056000feff32000c003700b103ab00feff32008b
:10057000090037006c87570033002000031f780004
:10058000000f7800c1bf9f00d2bf9f006c80570052
:10059000fa0007005fb99700020078004f07780063
:1005a000cf00b100000006000000050001408000ff
:1005b000910078000a000700110020000000e00010
:1005c000050035000040800090007800a000200069
:1005d00047000700cf00de000100ea00000006002f
:1005e000889fbe008a1f780080047800010578008b
:1005f0000900780046000700000478008a017800ae
:100600000801780011002000090078000a000700a6
:10061000800078000080eb00888f500001003a00d5
:100620000000eb004f0578004f04be0000000600fc
:100630001000780097ff3700889fbe008a9fbe0099
:10064000810478000204780009c5b9000900e000bf
:1006500001003a000004eb000a01780080007800f5
:1006600003007800f2ff0700800078008a8f5000b6
:1006700003003200110009008980d80000047800ce
:10068000080078004f05be004f04be0000000600c1
:100690000200fa000001780001007800e2ff9f00ec
:1006a000900090000188a30006003200ea0140009b
:1006b00093007800825878000280fb00810978005e
:1006c00009003700120020008f80e900d8ff0700e2
:1006d000800078000080eb000100e00002003200a2
:1006e000eff897000180fb000080fa000000060090
:1006f000e7ff3700000006006080200000000600d1
:10070000fdff070020408800104088000000060020
:1007100080007800040037003104e00002003a0055
:100720000000510000000600010178000108a3004c
:10073000f9ff3a008101780031017800f4ef2f00d1
:10074000020242000281ea0002016200040828005d
:1007500004016100f7ff3200830078000101780096
:100760003104e000fdff3a000000510000000600e7
:10077000889fbe008a1f780080047800490090009e
:1007800002047800800f5400010036000004780055
:10079000080178006a8544001a00780068000700a4
:1007a0001a004400000d7800e8844400990c1400fd
:1007b0000048eb004f0578004f04be000000060023
:1007c0001000780033ff3700900190000388a300e9
:1007d00001003200e6ff37000348a30001003a00a1
:1007e00093ff070000000600889fbe008a1f780064
:1007f00000047800010578000000eb000800e0002c
:100800001a003200180090000058a3000c003200bb
:10081000ea04440068009000990f100008003600b8
:10082000b80990000001eb00820078000800780011
:10083000030001000080eb001900e0000b00320013
:10084000740044000008eb006c0044000008eb005a
:100850006a0044000008eb000000eb000a00e00022
:100860000200320018007800fefe07004f057800f5
:100870004f04be0000000600889fbe008a1f78005b
:100880000004be000000eb000800e0002900320078
:10089000180090000058a300120032006a054400be
:1008a000680090009a0f100008003600b809900008
:1008b0000001eb00820078000800780003000100ce
:1008c0000080eb001a00e0001a00320074004400bf
:1008d0000008eb006c0044000008eb006a004400d4
:1008e0000008eb00780a900008109000800f52007a
:1008f000060031000002520011002000cfa2de00ed
:10090000612bb90018007800c7fe07000002200024
:10091000080040000008eb007e0044000008eb00e7
:100920000000eb000900e00002003200180078002f
:10093000ccfe07004f0578004f04be000000060003
:100940008001780002003700b15978000201e90007
:100950000200e000fcff3a00000006000000060074
:1009600067ff0700fdff0700fcff370000c0da004b
:100970000000060000c0da000000060000c0da0037
:04098000000006006d
:020000040000fa
:1009840045730000746100002065000073200000be
:100994006c61000020660000756e00006369000051
:1009a4006f6e0000203100000045000073740000e9
:1009b4006120000065730000206c000061200000cd
:1009c400667500006e630000696f00006e20000011
:1009d40032000000457300007461000020650000cf
:1009e400732000006c61000020660000756e00003a
:1009f400636900006f6e00002033000000000000f7
:020000040000fa
:100a04000008000042000000820000000408060004
:100a140008060800010003000000000000000000b8
:100a24000000000000003c00040000000000000082
:100a340000e003007a030000000000000000000052
:100a440000000000000000000000000000000000a2
:100a54000000000000000000000000000000000092
:100a640000000000420800000200000082000000b4
:080a7400010000000000000079
:020000040000fa
:100a7c000000fa00204c2800c9fe07000080fa0094
:100a8c00000006000000fa00704d2800c4fe0700ac
:100a9c000080fa00000006000000fa00c04e28009a
:100aac00bffe07000080fa00000006000000fa00fc
:100abc00efff0700f3ff0700f7ff0700ffff37000a
:00000001FF
