:04000000E2EF0AF031
:1008000000456C206E6F6D6272652064656C2070AF
:100810006572726F2065733A2025730A004C61205F
:10082000656461642064656C20706572726F206518
:10083000733A2025640A00456C2069642064656C65
:1008400020706572726F2065733A2025640A006C0F
:100850006C7300001EC036F01FC037F020C038F0A7
:1008600021C039F022C03AF023C03BF024C03CF054
:1008700025C03DF03DBE3FEF04F042EF04F0010E15
:1008800043EF04F0000E346E356A34503510D8B49E
:100890004CEF04F04EEF04F05EEF04F03D1E3C1E02
:1008A0003B1E3A1E391E381E371E366C000E37228C
:1008B000382239223A223B223C223D22000165BFE8
:1008C00064EF04F066EF04F067EF04F0669365BF31
:1008D00074EF04F0655106E16405D8B072EF04F0DE
:1008E00074EF04F07AEF04F0000E316E010E306EFA
:1008F0007EEF04F064C030F065C031F062C032F0C9
:1009000063C033F034503510D8A489EF04F08BEF76
:1009100004F092EF04F066A590EF04F092EF04F07B
:1009200095EF04F03206D8A03306000E3F6E1F0E7E
:100930003E6E000E876F19EF05F03E06D8A03F0609
:10094000680E3E24D96E000E3F20DA6E36C001F0EC
:1009500037C002F038C003F039C004F03AC005F0E7
:100960003BC006F03CC007F03DC008F00A0E096E1F
:10097000000E0A6E000E0B6E000E0C6E000E0D6E59
:10098000000E0E6E000E0F6E000E106E71EC08F071
:1009900001C026F002C027F003C028F004C029F0EF
:1009A00005C02AF006C02BF007C02CF008C02DF0BF
:1009B00026C013F028C014F0C2EC0AF01350300F18
:1009C000DF6E3006D8A031063206D8A0330636C016
:1009D00001F037C002F038C003F039C004F03AC06B
:1009E00005F03BC006F03CC007F03DC008F00A0E21
:1009F000096E000E0A6E000E0B6E000E0C6E000EDD
:100A00000D6E000E0E6E000E0F6E000E106EEAECF4
:100A100006F001C036F002C037F003C038F004C061
:100A200039F005C03AF006C03BF007C03CF008C002
:100A30003DF03FBE24EF05F03F5008E13E04D8A052
:100A400024EF05F026EF05F057EF05F0365037108C
:100A5000381039103A103B103C103D10D8A433EF39
:100A600005F035EF05F09DEF04F031BE42EF05F0E3
:100A7000315006E13004D8B040EF05F042EF05F008
:100A80009DEF04F033BE4DEF05F0335008E1320422
:100A9000D8A04DEF05F04FEF05F057EF05F000013E
:100AA00066B355EF05F057EF05F09DEF04F03450B5
:100AB0003510D8A45EEF05F060EF05F068EF05F0A3
:100AC000000166A566EF05F068EF05F086EF05F01A
:100AD0003E06D8A03F0634503510D8A472EF05F07A
:100AE00074EF05F07AEF05F0000E2F6E2B0E2E6ED0
:100AF0007EEF05F0000E2F6E2D0E2E6E680E3E243A
:100B0000D96E000E3F20DA6E2EC0DFFF1CC011F040
:100B10001DC012F0680E3E24136E000E3F20146EAE
:100B200032C015F033C016F092EC09F011C01CF081
:100B300012C01DF0120042C0D9FF43C0DAFFDECF61
:100B4000F6FFDDCFF7FF0800F550250AD8A4ABEF7C
:100B500005F0ADEF05F0CEEF06F042C0D9FF43C07F
:100B6000DAFFDE2A000EDD22000E0001636F000EA8
:100B7000626F62C066F063C067F06469656942C015
:100B8000D9FF43C0DAFFDECFF6FFDDCFF7FF080065
:100B9000F550640AD8B4CFEF05F0D1EF05F0E3EFDC
:100BA00005F042C0D9FF43C0DAFFDECFF6FFDDCF4C
:100BB000F7FF0800F550690AD8A4E1EF05F0E3EF6C
:100BC00005F023EF06F042C0D9FF43C0DAFFDE2A6A
:100BD000000EDD2244C0D9FF45C0DAFFDFCF46F06A
:100BE000020EDE26DFCF47F0000EDD2246C0D9FF21
:100BF00047C0DAFFDECF48F0DDCF49F0000E49BE36
:100C0000FF0E4A6E4B6E4C6E4D6E4E6E4F6E40C078
:100C10001CF041C01DF048C01EF049C01FF04AC082
:100C200020F04BC021F04CC022F04DC023F04EC04C
:100C300024F04FC025F02AEC04F01CC040F01DC089
:100C400041F0E9EF06F042C0D9FF43C0DAFFDECF42
:100C5000F6FFDDCFF7FF0800F550730AD8B433EF85
:100C600006F035EF06F050EF06F042C0D9FF43C062
:100C7000DAFFDECF01F0DDCF02F04F0E036E080E7B
:100C8000046E000E066E030E056E23EC09F0015093
:100C90000210D8A44EEF06F050EF06F098EF06F0E1
:100CA00042C0D9FF43C0DAFFDECFF6FFDDCFF7FF4A
:100CB0000800F550730AD8B460EF06F062EF06F052
:100CC00068EF06F0000E536E030E526E6CEF06F0E6
:100CD000000E536E010E526E42C0D9FF43C0DAFFC0
:100CE0005250DE265350DD2244C0D9FF45C0DAFF02
:100CF000DFCF46F0020EDE26DFCF47F0000EDD220A
:100D000046C0D9FF47C0DAFFDECF50F0DDCF51F04B
:100D100040C00AF041C00BF050C00CF051C00DF0C3
:100D2000AEEC07F00AC040F00BC041F0E9EF06F06E
:100D300042C0D9FF43C0DAFFDECFF6FFDDCFF7FFB9
:100D40000800F550250AD8A4A8EF06F0AAEF06F08F
:100D5000C1EF06F042C0D9FF43C0DAFFDE2A000E21
:100D6000DD22000E026E250E016E40C003F041C070
:100D700004F0F5EC09F0000E416E010E406EE9EF53
:100D800006F042C0D9FF43C0DAFFDE2A000EDD22A2
:100D9000000E416E000E406EE9EF06F042C0D9FF32
:100DA00043C0DAFFDECFF6FFDDCFF7FF0800F550D6
:100DB000016E026A40C003F041C004F0F5EC09F096
:100DC00042C0D9FF43C0DAFFDE2A000EDD22BBEFAE
:100DD00006F01200000E126E10BEF3EF06F0F1EFF7
:100DE00006F005EF07F0101E0F1E0E1E0D1E0C1E46
:100DF0000B1E0A1E096C000E0A220B220C220D2269
:100E00000E220F221022010E126E08BE0CEF07F008
:100E10000AEF07F01EEF07F0081E071E061E051E4C
:100E2000041E031E021E016C000E02220322042275
:100E30000522062207220822010E121A20EE13F0C4
:100E4000070EDE6AE806FDE209500A100B100C10CE
:100E50000D100E100F101010D8B431EF07F033EF53
:100E600007F085EF07F0010E116E41EF07F0D89003
:100E700009360A360B360C360D360E360F3610365E
:100E8000112A10AE46EF07F048EF07F037EF07F0F2
:100E9000D8901336143615361636173618361936D6
:100EA0001A360950015C0A5002580B5003580C5076
:100EB00004580D5005580E5006580F500758105042
:100EC0000858D8A066EF07F068EF07F079EF07F051
:100ED0000950015E0A50025A0B50035A0C50045A32
:100EE0000D50055A0E50065A0F50075A1050085A06
:100EF0001380D89010320F320E320D320C320B327A
:100F00000A320932112E48EF07F01250D8B48BEF95
:100F100007F08DEF07F09DEF07F01A1E191E181E3F
:100F2000171E161E151E141E136C000E14221522F9
:100F300016221722182219221A2213C001F014C0F7
:100F400002F015C003F016C004F017C005F018C079
:100F500006F019C007F01AC008F0120020EE96F053
:100F600010EE0FF0060EDBCFE3FFE806FCE20CC04C
:100F70001AF00DC01BF01A501B10D8A4C2EF07F0D6
:100F8000C4EF07F0C8EF07F00F0E1A6E000E1B6ECD
:100F90001AC001F01BC002F0FFEC0AF001C01EF005
:100FA00002C01FF064C01CF065C01DF01DBEDBEF69
:100FB00007F0DDEF07F0F2EF07F01E501C5C1D504C
:100FC000800A0E6E1F50800A0E58D8A0EAEF07F074
:100FD000ECEF07F0EEEF07F0F2EF07F01CC01EF0A9
:100FE0001DC01FF01EC01CF01FC01DF062C018F015
:100FF00063C019F0000166B100EF08F002EF08F0DD
:101000001FEF08F010EF08F0000E026E200E016EC8
:101010000AC003F00BC004F0F5EC09F01E4A1F2AC9
:1010200018501E5C1F50800A0E6E1950800A0E5810
:10103000D8A01DEF08F01FEF08F004EF08F0000E35
:10104000176E000E166E38EF08F01AC0D9FF1BC0DD
:10105000DAFFDF500E6E0E50016E026A0AC003F016
:101060000BC004F0F5EC09F01A4A1B2A164A172A9D
:101070001C50165C1750800A0E6E1D50800A0E58C8
:10108000D8A045EF08F047EF08F025EF08F0000181
:1010900066A14DEF08F04FEF08F06CEF08F05DEF40
:1010A00008F0000E026E200E016E0AC003F00BC0A5
:1010B00004F0F5EC09F01E4A1F2A18501E5C1F5060
:1010C000800A0E6E1950800A0E58D8A06AEF08F0F8
:1010D0006CEF08F051EF08F01EC00AF01FC00BF0D3
:1010E0001200000E126E08BE7AEF08F078EF08F0DA
:1010F0008CEF08F0081E071E061E051E041E031EA8
:10110000021E016C000E0222032204220522062286
:1011100007220822010E126E10BE93EF08F091EF25
:1011200008F0A3EF08F0101E0F1E0E1E0D1E0C1E61
:101130000B1E0A1E096C000E0A220B220C220D2225
:101140000E220F22102209500A100B100C100D1045
:101150000E100F101010D8B4B0EF08F0B2EF08F076
:10116000FAEF08F0010E116EC0EF08F0D8900936C2
:101170000A360B360C360D360E360F361036112A5F
:1011800010AEC5EF08F0C7EF08F0B6EF08F0095051
:10119000015C0A5002580B5003580C5004580D5073
:1011A00005580E5006580F50075810500858D8A030
:1011B000DCEF08F0DEEF08F0EEEF08F00950015E1A
:1011C0000A50025A0B50035A0C50045A0D50055A3B
:1011D0000E50065A0F50075A1050085AD890103225
:1011E0000F320E320D320C320B320A320932112E0E
:1011F000C7EF08F01250D8B400EF09F002EF09F081
:1012000012EF09F0081E071E061E051E041E031E0F
:10121000021E016C000E0222032204220522062275
:101220000722082201C001F002C002F003C003F04F
:1012300004C004F005C005F006C006F007C007F0C2
:1012400008C008F0120001C008F002C009F003C095
:101250000AF004C00BF00506D8A00606052806E132
:101260000628D8A436EF09F038EF09F045EF09F069
:10127000000E026E000E016E91EF09F0084A092A75
:101280000A4A0B2A0506D8A0060608C0F6FF09C0C0
:10129000F7FF0800F5500009D8B451EF09F053EFFB
:1012A00009F07FEF09F00AC0F6FF0BC0F7FF080056
:1012B000F5500009D8B45FEF09F061EF09F07FEF56
:1012C00009F005500610D8B468EF09F06AEF09F08C
:1012D0007FEF09F008C0F6FF09C0F7FF0800F5CF5F
:1012E00007F00AC0F6FF0BC0F7FF0800F55007181B
:1012F000D8B47DEF09F07FEF09F03EEF09F008C0A8
:10130000F6FF09C0F7FF0800F5CF07F00AC0F6FFA7
:101310000BC0F7FF0800F550075C016E026AD8A009
:1013200002061200000166A198EF09F09AEF09F099
:10133000A4EF09F013C00AF014C00BF011C00CF0B8
:1013400012C00DF0A0EC0AF016BEA9EF09F0ABEF49
:1013500009F0B1EF09F015C01AF016C01BF0B5EF97
:1013600009F0000E1B6E000E1A6E000E196E000EB4
:10137000186EC7EF09F0000E026E200E016E11C04C
:1013800003F012C004F0F5EC09F0184A192A1A50BB
:10139000185C1950800A176E1B50800A1758D8A085
:1013A000D4EF09F0D6EF09F0BBEF09F0000166B108
:1013B000DCEF09F0DEEF09F0E8EF09F013C00AF006
:1013C00014C00BF011C00CF012C00DF0A0EC0AF02C
:1013D00013C001F014C002F0FFEC0AF01A5001240F
:1013E000116E1B500220126E120003500410D8B46C
:1013F000FCEF09F0FEEF09F007EF0AF003500410CC
:10140000D8A405EF0AF007EF0AF00CEF0AF001503C
:1014100039EC0BF03FEF0AF020EE09F00350D9262B
:101420000450DA22DE50DE10D8B419EF0AF01BEFB8
:101430000AF036EF0AF020EE09F00350D9260450E6
:10144000DA2210EE03F00350E1260450E222DE50CF
:10145000E65CE650800A096EDE50800A0958D8B072
:1014600034EF0AF036EF0AF03FEF0AF020EE03F017
:101470000350D9260450DA22DE2A000EDD221200A3
:1014800056C05AF057C05BF0000E0001616F000EAD
:10149000606F5EEF0AF054C040F055C041F05A0E44
:1014A000426E000E436E58C044F059C045F09BECAC
:1014B00005F0405000016027415061235AC0F6FFFB
:1014C0005BC0F7FF0800F5500009D8A46AEF0AF0E6
:1014D0006CEF0AF04BEF0AF060C054F061C055F0B9
:1014E000120020EE88F010EE9FF00D0EDBCFE3FF30
:1014F000E806FCE23AEC0BF03BEC0BF0370E5C6ECE
:10150000080E5D6E9FC05EF0A0C05FF01AEC0BF09D
:10151000010E5C6E080E5D6EA10E5E6E000E5F6EBB
:101520001AEC0BF01D0E5C6E080E5D6EABC05EF02B
:10153000ACC05FF01AEC0BF09CEF0AF000EF00F08B
:10154000000E106E000E0F6EB1EF0AF00EC001F02B
:10155000026A0CC003F00DC004F0F5EC09F00F4A6C
:10156000102A0F500A24D96E10500B20DA6EDF506B
:101570000E6E0E50D8A4BFEF0AF0C1EF0AF0A6EF2E
:101580000AF0120014BECFEF0AF0145006E1130463
:10159000D8B0CDEF0AF0CFEF0AF0DDEF0AF013C0BC
:1015A00015F014C016F0151E161E154A162A15C081
:1015B00013F016C014F0E1EF0AF013C013F014C0DA
:1015C00014F012005C0EF66E160EF76E000EF86E3A
:1015D00000EE88F010EE15F00900F5CFEEFFE550B3
:1015E000E150FAE100EE60F0280EEE6AE806FDE157
:1015F000000EF86E080EF76E000171EF0AF001C0E0
:1016000003F002C004F007EF0BF0014A022A01C008
:10161000D9FF02C0DAFFDF50D8A411EF0BF013EFAF
:101620000BF005EF0BF00350015C016E0450025803
:10163000026E12005E0E00019D6F000E9E6F000E86
:10164000546E000E556E5CC056F05DC057F09D0E96
:10165000586E000E596E40EC0AF0120037006669B1
:1016600072756C61697300000500286E756C6C29D9
:011670000079
:061672001200120012003C
:020000040020DA
:08000000FFFFFFFFFFFFFFFF00
:020000040030CA
:0E00000000051F1FFF8385FF0FC00FE00F409C
:00000001FF
